{
  "address": "0x3b4F8E5BF0E6f2acCb96fb9F1a22049e476f796e",
  "abi": [
    {
      "inputs": [
        {
          "internalType": "address",
          "name": "priceFeedAddress",
          "type": "address"
        }
      ],
      "stateMutability": "nonpayable",
      "type": "constructor"
    },
    {
      "inputs": [],
      "name": "FundMe_NotOwner",
      "type": "error"
    },
    {
      "stateMutability": "payable",
      "type": "fallback"
    },
    {
      "inputs": [],
      "name": "MINIMUM_USD",
      "outputs": [
        {
          "internalType": "uint256",
          "name": "",
          "type": "uint256"
        }
      ],
      "stateMutability": "view",
      "type": "function"
    },
    {
      "inputs": [],
      "name": "fund",
      "outputs": [],
      "stateMutability": "payable",
      "type": "function"
    },
    {
      "inputs": [
        {
          "internalType": "address",
          "name": "funder",
          "type": "address"
        }
      ],
      "name": "getAddressToAmountFunded",
      "outputs": [
        {
          "internalType": "uint256",
          "name": "",
          "type": "uint256"
        }
      ],
      "stateMutability": "view",
      "type": "function"
    },
    {
      "inputs": [
        {
          "internalType": "uint256",
          "name": "index",
          "type": "uint256"
        }
      ],
      "name": "getFunder",
      "outputs": [
        {
          "internalType": "address",
          "name": "",
          "type": "address"
        }
      ],
      "stateMutability": "view",
      "type": "function"
    },
    {
      "inputs": [],
      "name": "getOwner",
      "outputs": [
        {
          "internalType": "address",
          "name": "",
          "type": "address"
        }
      ],
      "stateMutability": "view",
      "type": "function"
    },
    {
      "inputs": [],
      "name": "getPriceFeed",
      "outputs": [
        {
          "internalType": "contract AggregatorV3Interface",
          "name": "",
          "type": "address"
        }
      ],
      "stateMutability": "view",
      "type": "function"
    },
    {
      "inputs": [],
      "name": "withdraw",
      "outputs": [],
      "stateMutability": "nonpayable",
      "type": "function"
    },
    {
      "stateMutability": "payable",
      "type": "receive"
    }
  ],
  "transactionHash": "0xef461f40441d48a2020a3a202d7f07df39d4c59efaa0ffb52c2e1880da24a034",
  "args": [
    "0xF9680D99D6C9589e2a93a78A04A279e509205945"
  ],
  "numDeployments": 3,
  "solcInputHash": "8ce95ad93bca8f048fc92583bf0ab345",
  "bytecode": "0x60a06040523480156200001157600080fd5b5060405162001254380380620012548339818101604052810190620000379190620000cd565b3373ffffffffffffffffffffffffffffffffffffffff1660808173ffffffffffffffffffffffffffffffffffffffff1660601b8152505080600260006101000a81548173ffffffffffffffffffffffffffffffffffffffff021916908373ffffffffffffffffffffffffffffffffffffffff1602179055505062000152565b600081519050620000c78162000138565b92915050565b600060208284031215620000e657620000e562000133565b5b6000620000f684828501620000b6565b91505092915050565b60006200010c8262000113565b9050919050565b600073ffffffffffffffffffffffffffffffffffffffff82169050919050565b600080fd5b6200014381620000ff565b81146200014f57600080fd5b50565b60805160601c6110dc62000178600039600081816103e8015261063601526110dc6000f3fe6080604052600436106100745760003560e01c8063893d20e81161004e578063893d20e81461010c5780639e87a5cd14610137578063b60d428814610162578063d7b4750c1461016c57610083565b80630343fb251461008d5780633ccfd60b146100ca5780636b69a592146100e157610083565b36610083576100816101a9565b005b61008b6101a9565b005b34801561009957600080fd5b506100b460048036038101906100af919061097c565b61039d565b6040516100c19190610bdb565b60405180910390f35b3480156100d657600080fd5b506100df6103e6565b005b3480156100ed57600080fd5b506100f6610626565b6040516101039190610bdb565b60405180910390f35b34801561011857600080fd5b50610121610632565b60405161012e9190610b35565b60405180910390f35b34801561014357600080fd5b5061014c61065a565b6040516101599190610b50565b60405180910390f35b61016a6101a9565b005b34801561017857600080fd5b50610193600480360381019061018e91906109a9565b610684565b6040516101a09190610b35565b60405180910390f35b61021c6040518060400160405280600481526020017f73656e7400000000000000000000000000000000000000000000000000000000815250610217600260009054906101000a900473ffffffffffffffffffffffffffffffffffffffff16346106cb90919063ffffffff16565b610707565b6102636040518060400160405280600781526020017f6d696e696d756d00000000000000000000000000000000000000000000000000815250670de0b6b3a7640000610707565b670de0b6b3a76400006102a1600260009054906101000a900473ffffffffffffffffffffffffffffffffffffffff16346106cb90919063ffffffff16565b10156102e2576040517f08c379a00000000000000000000000000000000000000000000000000000000081526004016102d990610b9b565b60405180910390fd5b6000339080600181540180825580915050600190039060005260206000200160009091909190916101000a81548173ffffffffffffffffffffffffffffffffffffffff021916908373ffffffffffffffffffffffffffffffffffffffff16021790555034600160003373ffffffffffffffffffffffffffffffffffffffff1673ffffffffffffffffffffffffffffffffffffffff16815260200190815260200160002060008282546103949190610c1d565b92505081905550565b6000600160008373ffffffffffffffffffffffffffffffffffffffff1673ffffffffffffffffffffffffffffffffffffffff168152602001908152602001600020549050919050565b7f000000000000000000000000000000000000000000000000000000000000000073ffffffffffffffffffffffffffffffffffffffff163373ffffffffffffffffffffffffffffffffffffffff161461046b576040517f10e0797900000000000000000000000000000000000000000000000000000000815260040160405180910390fd5b60005b6000805490508110156105165760008082815481106104905761048f610f81565b5b9060005260206000200160009054906101000a900473ffffffffffffffffffffffffffffffffffffffff1690506000600160008373ffffffffffffffffffffffffffffffffffffffff1673ffffffffffffffffffffffffffffffffffffffff1681526020019081526020016000208190555050808061050e90610eda565b91505061046e565b50600067ffffffffffffffff81111561053257610531610fb0565b5b6040519080825280602002602001820160405280156105605781602001602082028036833780820191505090505b506000908051906020019061057692919061086c565b5060003373ffffffffffffffffffffffffffffffffffffffff164760405161059d90610b20565b60006040518083038185875af1925050503d80600081146105da576040519150601f19603f3d011682016040523d82523d6000602084013e6105df565b606091505b5050905080610623576040517f08c379a000000000000000000000000000000000000000000000000000000000815260040161061a90610bbb565b60405180910390fd5b50565b670de0b6b3a764000081565b60007f0000000000000000000000000000000000000000000000000000000000000000905090565b6000600260009054906101000a900473ffffffffffffffffffffffffffffffffffffffff16905090565b600080828154811061069957610698610f81565b5b9060005260206000200160009054906101000a900473ffffffffffffffffffffffffffffffffffffffff169050919050565b6000806106d7836107a3565b90506000670de0b6b3a764000085836106f09190610dbb565b6106fa9190610c73565b9050809250505092915050565b61079f828260405160240161071d929190610b6b565b6040516020818303038152906040527f9710a9d0000000000000000000000000000000000000000000000000000000007bffffffffffffffffffffffffffffffffffffffffffffffffffffffff19166020820180517bffffffffffffffffffffffffffffffffffffffffffffffffffffffff8381831617835250505050610843565b5050565b6000808273ffffffffffffffffffffffffffffffffffffffff1663feaf968c6040518163ffffffff1660e01b815260040160a06040518083038186803b1580156107ec57600080fd5b505afa158015610800573d6000803e3d6000fd5b505050506040513d601f19601f8201168201806040525081019061082491906109d6565b5050509150506402540be4008161083b9190610ca4565b915050919050565b60008151905060006a636f6e736f6c652e6c6f679050602083016000808483855afa5050505050565b8280548282559060005260206000209081019282156108e5579160200282015b828111156108e45782518260006101000a81548173ffffffffffffffffffffffffffffffffffffffff021916908373ffffffffffffffffffffffffffffffffffffffff1602179055509160200191906001019061088c565b5b5090506108f291906108f6565b5090565b5b8082111561090f5760008160009055506001016108f7565b5090565b6000813590506109228161104a565b92915050565b60008151905061093781611061565b92915050565b60008135905061094c81611078565b92915050565b60008151905061096181611078565b92915050565b6000815190506109768161108f565b92915050565b60006020828403121561099257610991610fdf565b5b60006109a084828501610913565b91505092915050565b6000602082840312156109bf576109be610fdf565b5b60006109cd8482850161093d565b91505092915050565b600080600080600060a086880312156109f2576109f1610fdf565b5b6000610a0088828901610967565b9550506020610a1188828901610928565b9450506040610a2288828901610952565b9350506060610a3388828901610952565b9250506080610a4488828901610967565b9150509295509295909350565b610a5a81610e15565b82525050565b610a6981610e71565b82525050565b6000610a7a82610bf6565b610a848185610c0c565b9350610a94818560208601610ea7565b610a9d81610fe4565b840191505092915050565b6000610ab5600083610c01565b9150610ac082610ff5565b600082019050919050565b6000610ad8601183610c0c565b9150610ae382610ff8565b602082019050919050565b6000610afb600b83610c0c565b9150610b0682611021565b602082019050919050565b610b1a81610e51565b82525050565b6000610b2b82610aa8565b9150819050919050565b6000602082019050610b4a6000830184610a51565b92915050565b6000602082019050610b656000830184610a60565b92915050565b60006040820190508181036000830152610b858185610a6f565b9050610b946020830184610b11565b9392505050565b60006020820190508181036000830152610bb481610acb565b9050919050565b60006020820190508181036000830152610bd481610aee565b9050919050565b6000602082019050610bf06000830184610b11565b92915050565b600081519050919050565b600081905092915050565b600082825260208201905092915050565b6000610c2882610e51565b9150610c3383610e51565b9250827fffffffffffffffffffffffffffffffffffffffffffffffffffffffffffffffff03821115610c6857610c67610f23565b5b828201905092915050565b6000610c7e82610e51565b9150610c8983610e51565b925082610c9957610c98610f52565b5b828204905092915050565b6000610caf82610e27565b9150610cba83610e27565b9250827f7fffffffffffffffffffffffffffffffffffffffffffffffffffffffffffffff0482116000841360008413161615610cf957610cf8610f23565b5b817f80000000000000000000000000000000000000000000000000000000000000000583126000841260008413161615610d3657610d35610f23565b5b827f80000000000000000000000000000000000000000000000000000000000000000582126000841360008412161615610d7357610d72610f23565b5b827f7fffffffffffffffffffffffffffffffffffffffffffffffffffffffffffffff0582126000841260008412161615610db057610daf610f23565b5b828202905092915050565b6000610dc682610e51565b9150610dd183610e51565b9250817fffffffffffffffffffffffffffffffffffffffffffffffffffffffffffffffff0483118215151615610e0a57610e09610f23565b5b828202905092915050565b6000610e2082610e31565b9050919050565b6000819050919050565b600073ffffffffffffffffffffffffffffffffffffffff82169050919050565b6000819050919050565b600069ffffffffffffffffffff82169050919050565b6000610e7c82610e83565b9050919050565b6000610e8e82610e95565b9050919050565b6000610ea082610e31565b9050919050565b60005b83811015610ec5578082015181840152602081019050610eaa565b83811115610ed4576000848401525b50505050565b6000610ee582610e51565b91507fffffffffffffffffffffffffffffffffffffffffffffffffffffffffffffffff821415610f1857610f17610f23565b5b600182019050919050565b7f4e487b7100000000000000000000000000000000000000000000000000000000600052601160045260246000fd5b7f4e487b7100000000000000000000000000000000000000000000000000000000600052601260045260246000fd5b7f4e487b7100000000000000000000000000000000000000000000000000000000600052603260045260246000fd5b7f4e487b7100000000000000000000000000000000000000000000000000000000600052604160045260246000fd5b600080fd5b6000601f19601f8301169050919050565b50565b7f4469646e742073656e6420456e6f756768000000000000000000000000000000600082015250565b7f43616c6c204661696c6564000000000000000000000000000000000000000000600082015250565b61105381610e15565b811461105e57600080fd5b50565b61106a81610e27565b811461107557600080fd5b50565b61108181610e51565b811461108c57600080fd5b50565b61109881610e5b565b81146110a357600080fd5b5056fea264697066735822122085bb9131a630017867f114ac4cd0d46cc9843e36a624e5281077820ebb337e6064736f6c63430008070033",
  "devdoc": {
    "author": "Lubwama Isaac",
    "details": "This implements Price feeds as our library",
    "kind": "dev",
    "methods": {},
    "title": "A contract for crowd Funding",
    "version": 1
  },
  "userdoc": {
    "kind": "user",
    "methods": {},
    "notice": "Nutspec Format for creating DocumentationThis contract is to demo a funding contract",
    "version": 1
  },
  "storageLayout": {
    "storage": [
      {
        "astId": 66,
        "contract": "contracts/FundMe.sol:FundMe",
        "label": "funders",
        "offset": 0,
        "slot": "0",
        "type": "t_array(t_address)dyn_storage"
      },
      {
        "astId": 70,
        "contract": "contracts/FundMe.sol:FundMe",
        "label": "addressToAmountFunded",
        "offset": 0,
        "slot": "1",
        "type": "t_mapping(t_address,t_uint256)"
      },
      {
        "astId": 75,
        "contract": "contracts/FundMe.sol:FundMe",
        "label": "priceFeed",
        "offset": 0,
        "slot": "2",
        "type": "t_contract(AggregatorV3Interface)45"
      }
    ],
    "types": {
      "t_address": {
        "encoding": "inplace",
        "label": "address",
        "numberOfBytes": "20"
      },
      "t_array(t_address)dyn_storage": {
        "base": "t_address",
        "encoding": "dynamic_array",
        "label": "address[]",
        "numberOfBytes": "32"
      },
      "t_contract(AggregatorV3Interface)45": {
        "encoding": "inplace",
        "label": "contract AggregatorV3Interface",
        "numberOfBytes": "20"
      },
      "t_mapping(t_address,t_uint256)": {
        "encoding": "mapping",
        "key": "t_address",
        "label": "mapping(address => uint256)",
        "numberOfBytes": "32",
        "value": "t_uint256"
      },
      "t_uint256": {
        "encoding": "inplace",
        "label": "uint256",
        "numberOfBytes": "32"
      }
    }
  }
}