{
  "address": "0xe7f1725E7734CE288F8367e1Bb143E90bb3F0512",
  "abi": [
    {
      "inputs": [
        {
          "internalType": "address",
          "name": "priceFeedAddress",
          "type": "address"
        }
      ],
      "stateMutability": "nonpayable",
      "type": "constructor"
    },
    {
      "inputs": [],
      "name": "FundMe_NotOwner",
      "type": "error"
    },
    {
      "stateMutability": "payable",
      "type": "fallback"
    },
    {
      "inputs": [],
      "name": "MINIMUM_USD",
      "outputs": [
        {
          "internalType": "uint256",
          "name": "",
          "type": "uint256"
        }
      ],
      "stateMutability": "view",
      "type": "function"
    },
    {
      "inputs": [],
      "name": "fund",
      "outputs": [],
      "stateMutability": "payable",
      "type": "function"
    },
    {
      "inputs": [
        {
          "internalType": "address",
          "name": "funder",
          "type": "address"
        }
      ],
      "name": "getAddressToAmountFunded",
      "outputs": [
        {
          "internalType": "uint256",
          "name": "",
          "type": "uint256"
        }
      ],
      "stateMutability": "view",
      "type": "function"
    },
    {
      "inputs": [
        {
          "internalType": "uint256",
          "name": "index",
          "type": "uint256"
        }
      ],
      "name": "getFunder",
      "outputs": [
        {
          "internalType": "address",
          "name": "",
          "type": "address"
        }
      ],
      "stateMutability": "view",
      "type": "function"
    },
    {
      "inputs": [],
      "name": "getOwner",
      "outputs": [
        {
          "internalType": "address",
          "name": "",
          "type": "address"
        }
      ],
      "stateMutability": "view",
      "type": "function"
    },
    {
      "inputs": [],
      "name": "getPriceFeed",
      "outputs": [
        {
          "internalType": "contract AggregatorV3Interface",
          "name": "",
          "type": "address"
        }
      ],
      "stateMutability": "view",
      "type": "function"
    },
    {
      "inputs": [],
      "name": "withdraw",
      "outputs": [],
      "stateMutability": "nonpayable",
      "type": "function"
    },
    {
      "stateMutability": "payable",
      "type": "receive"
    }
  ],
  "transactionHash": "0x4805bb2f032a18a6d1ae251c5088920ff7d9939ad83ecf701e5e195e5da088a1",
  "args": [
    "0x5FbDB2315678afecb367f032d93F642f64180aa3"
  ],
  "numDeployments": 1,
  "solcInputHash": "79af4e8a0d97a3f42029ca4bf5ced482",
  "bytecode": "0x60a06040523480156200001157600080fd5b5060405162001257380380620012578339818101604052810190620000379190620000cd565b3373ffffffffffffffffffffffffffffffffffffffff1660808173ffffffffffffffffffffffffffffffffffffffff1660601b8152505080600260006101000a81548173ffffffffffffffffffffffffffffffffffffffff021916908373ffffffffffffffffffffffffffffffffffffffff1602179055505062000152565b600081519050620000c78162000138565b92915050565b600060208284031215620000e657620000e562000133565b5b6000620000f684828501620000b6565b91505092915050565b60006200010c8262000113565b9050919050565b600073ffffffffffffffffffffffffffffffffffffffff82169050919050565b600080fd5b6200014381620000ff565b81146200014f57600080fd5b50565b60805160601c6110df62000178600039600081816103ea015261063901526110df6000f3fe6080604052600436106100745760003560e01c8063893d20e81161004e578063893d20e81461010c5780639e87a5cd14610137578063b60d428814610162578063d7b4750c1461016c57610083565b80630343fb251461008d5780633ccfd60b146100ca5780636b69a592146100e157610083565b36610083576100816101a9565b005b61008b6101a9565b005b34801561009957600080fd5b506100b460048036038101906100af919061097f565b61039f565b6040516100c19190610bde565b60405180910390f35b3480156100d657600080fd5b506100df6103e8565b005b3480156100ed57600080fd5b506100f6610628565b6040516101039190610bde565b60405180910390f35b34801561011857600080fd5b50610121610635565b60405161012e9190610b38565b60405180910390f35b34801561014357600080fd5b5061014c61065d565b6040516101599190610b53565b60405180910390f35b61016a6101a9565b005b34801561017857600080fd5b50610193600480360381019061018e91906109ac565b610687565b6040516101a09190610b38565b60405180910390f35b61021c6040518060400160405280600481526020017f73656e7400000000000000000000000000000000000000000000000000000000815250610217600260009054906101000a900473ffffffffffffffffffffffffffffffffffffffff16346106ce90919063ffffffff16565b61070a565b6102646040518060400160405280600781526020017f6d696e696d756d000000000000000000000000000000000000000000000000008152506802b5e3af16b188000061070a565b6802b5e3af16b18800006102a3600260009054906101000a900473ffffffffffffffffffffffffffffffffffffffff16346106ce90919063ffffffff16565b10156102e4576040517f08c379a00000000000000000000000000000000000000000000000000000000081526004016102db90610b9e565b60405180910390fd5b6000339080600181540180825580915050600190039060005260206000200160009091909190916101000a81548173ffffffffffffffffffffffffffffffffffffffff021916908373ffffffffffffffffffffffffffffffffffffffff16021790555034600160003373ffffffffffffffffffffffffffffffffffffffff1673ffffffffffffffffffffffffffffffffffffffff16815260200190815260200160002060008282546103969190610c20565b92505081905550565b6000600160008373ffffffffffffffffffffffffffffffffffffffff1673ffffffffffffffffffffffffffffffffffffffff168152602001908152602001600020549050919050565b7f000000000000000000000000000000000000000000000000000000000000000073ffffffffffffffffffffffffffffffffffffffff163373ffffffffffffffffffffffffffffffffffffffff161461046d576040517f10e0797900000000000000000000000000000000000000000000000000000000815260040160405180910390fd5b60005b60008054905081101561051857600080828154811061049257610491610f84565b5b9060005260206000200160009054906101000a900473ffffffffffffffffffffffffffffffffffffffff1690506000600160008373ffffffffffffffffffffffffffffffffffffffff1673ffffffffffffffffffffffffffffffffffffffff1681526020019081526020016000208190555050808061051090610edd565b915050610470565b50600067ffffffffffffffff81111561053457610533610fb3565b5b6040519080825280602002602001820160405280156105625781602001602082028036833780820191505090505b506000908051906020019061057892919061086f565b5060003373ffffffffffffffffffffffffffffffffffffffff164760405161059f90610b23565b60006040518083038185875af1925050503d80600081146105dc576040519150601f19603f3d011682016040523d82523d6000602084013e6105e1565b606091505b5050905080610625576040517f08c379a000000000000000000000000000000000000000000000000000000000815260040161061c90610bbe565b60405180910390fd5b50565b6802b5e3af16b188000081565b60007f0000000000000000000000000000000000000000000000000000000000000000905090565b6000600260009054906101000a900473ffffffffffffffffffffffffffffffffffffffff16905090565b600080828154811061069c5761069b610f84565b5b9060005260206000200160009054906101000a900473ffffffffffffffffffffffffffffffffffffffff169050919050565b6000806106da836107a6565b90506000670de0b6b3a764000085836106f39190610dbe565b6106fd9190610c76565b9050809250505092915050565b6107a28282604051602401610720929190610b6e565b6040516020818303038152906040527f9710a9d0000000000000000000000000000000000000000000000000000000007bffffffffffffffffffffffffffffffffffffffffffffffffffffffff19166020820180517bffffffffffffffffffffffffffffffffffffffffffffffffffffffff8381831617835250505050610846565b5050565b6000808273ffffffffffffffffffffffffffffffffffffffff1663feaf968c6040518163ffffffff1660e01b815260040160a06040518083038186803b1580156107ef57600080fd5b505afa158015610803573d6000803e3d6000fd5b505050506040513d601f19601f8201168201806040525081019061082791906109d9565b5050509150506402540be4008161083e9190610ca7565b915050919050565b60008151905060006a636f6e736f6c652e6c6f679050602083016000808483855afa5050505050565b8280548282559060005260206000209081019282156108e8579160200282015b828111156108e75782518260006101000a81548173ffffffffffffffffffffffffffffffffffffffff021916908373ffffffffffffffffffffffffffffffffffffffff1602179055509160200191906001019061088f565b5b5090506108f591906108f9565b5090565b5b808211156109125760008160009055506001016108fa565b5090565b6000813590506109258161104d565b92915050565b60008151905061093a81611064565b92915050565b60008135905061094f8161107b565b92915050565b6000815190506109648161107b565b92915050565b60008151905061097981611092565b92915050565b60006020828403121561099557610994610fe2565b5b60006109a384828501610916565b91505092915050565b6000602082840312156109c2576109c1610fe2565b5b60006109d084828501610940565b91505092915050565b600080600080600060a086880312156109f5576109f4610fe2565b5b6000610a038882890161096a565b9550506020610a148882890161092b565b9450506040610a2588828901610955565b9350506060610a3688828901610955565b9250506080610a478882890161096a565b9150509295509295909350565b610a5d81610e18565b82525050565b610a6c81610e74565b82525050565b6000610a7d82610bf9565b610a878185610c0f565b9350610a97818560208601610eaa565b610aa081610fe7565b840191505092915050565b6000610ab8600083610c04565b9150610ac382610ff8565b600082019050919050565b6000610adb601183610c0f565b9150610ae682610ffb565b602082019050919050565b6000610afe600b83610c0f565b9150610b0982611024565b602082019050919050565b610b1d81610e54565b82525050565b6000610b2e82610aab565b9150819050919050565b6000602082019050610b4d6000830184610a54565b92915050565b6000602082019050610b686000830184610a63565b92915050565b60006040820190508181036000830152610b888185610a72565b9050610b976020830184610b14565b9392505050565b60006020820190508181036000830152610bb781610ace565b9050919050565b60006020820190508181036000830152610bd781610af1565b9050919050565b6000602082019050610bf36000830184610b14565b92915050565b600081519050919050565b600081905092915050565b600082825260208201905092915050565b6000610c2b82610e54565b9150610c3683610e54565b9250827fffffffffffffffffffffffffffffffffffffffffffffffffffffffffffffffff03821115610c6b57610c6a610f26565b5b828201905092915050565b6000610c8182610e54565b9150610c8c83610e54565b925082610c9c57610c9b610f55565b5b828204905092915050565b6000610cb282610e2a565b9150610cbd83610e2a565b9250827f7fffffffffffffffffffffffffffffffffffffffffffffffffffffffffffffff0482116000841360008413161615610cfc57610cfb610f26565b5b817f80000000000000000000000000000000000000000000000000000000000000000583126000841260008413161615610d3957610d38610f26565b5b827f80000000000000000000000000000000000000000000000000000000000000000582126000841360008412161615610d7657610d75610f26565b5b827f7fffffffffffffffffffffffffffffffffffffffffffffffffffffffffffffff0582126000841260008412161615610db357610db2610f26565b5b828202905092915050565b6000610dc982610e54565b9150610dd483610e54565b9250817fffffffffffffffffffffffffffffffffffffffffffffffffffffffffffffffff0483118215151615610e0d57610e0c610f26565b5b828202905092915050565b6000610e2382610e34565b9050919050565b6000819050919050565b600073ffffffffffffffffffffffffffffffffffffffff82169050919050565b6000819050919050565b600069ffffffffffffffffffff82169050919050565b6000610e7f82610e86565b9050919050565b6000610e9182610e98565b9050919050565b6000610ea382610e34565b9050919050565b60005b83811015610ec8578082015181840152602081019050610ead565b83811115610ed7576000848401525b50505050565b6000610ee882610e54565b91507fffffffffffffffffffffffffffffffffffffffffffffffffffffffffffffffff821415610f1b57610f1a610f26565b5b600182019050919050565b7f4e487b7100000000000000000000000000000000000000000000000000000000600052601160045260246000fd5b7f4e487b7100000000000000000000000000000000000000000000000000000000600052601260045260246000fd5b7f4e487b7100000000000000000000000000000000000000000000000000000000600052603260045260246000fd5b7f4e487b7100000000000000000000000000000000000000000000000000000000600052604160045260246000fd5b600080fd5b6000601f19601f8301169050919050565b50565b7f4469646e742073656e6420456e6f756768000000000000000000000000000000600082015250565b7f43616c6c204661696c6564000000000000000000000000000000000000000000600082015250565b61105681610e18565b811461106157600080fd5b50565b61106d81610e2a565b811461107857600080fd5b50565b61108481610e54565b811461108f57600080fd5b50565b61109b81610e5e565b81146110a657600080fd5b5056fea264697066735822122043f71e44be8323b16c9970d70fae9545e8bb7ebd6078e77816be65eefe4924e964736f6c63430008070033",
  "devdoc": {
    "author": "Lubwama Isaac",
    "details": "This implements Price feeds as our library",
    "kind": "dev",
    "methods": {},
    "title": "A contract for crowd Funding",
    "version": 1
  },
  "userdoc": {
    "kind": "user",
    "methods": {},
    "notice": "Nutspec Format for creating DocumentationThis contract is to demo a funding contract",
    "version": 1
  },
  "storageLayout": {
    "storage": [
      {
        "astId": 66,
        "contract": "contracts/FundMe.sol:FundMe",
        "label": "funders",
        "offset": 0,
        "slot": "0",
        "type": "t_array(t_address)dyn_storage"
      },
      {
        "astId": 70,
        "contract": "contracts/FundMe.sol:FundMe",
        "label": "addressToAmountFunded",
        "offset": 0,
        "slot": "1",
        "type": "t_mapping(t_address,t_uint256)"
      },
      {
        "astId": 75,
        "contract": "contracts/FundMe.sol:FundMe",
        "label": "priceFeed",
        "offset": 0,
        "slot": "2",
        "type": "t_contract(AggregatorV3Interface)45"
      }
    ],
    "types": {
      "t_address": {
        "encoding": "inplace",
        "label": "address",
        "numberOfBytes": "20"
      },
      "t_array(t_address)dyn_storage": {
        "base": "t_address",
        "encoding": "dynamic_array",
        "label": "address[]",
        "numberOfBytes": "32"
      },
      "t_contract(AggregatorV3Interface)45": {
        "encoding": "inplace",
        "label": "contract AggregatorV3Interface",
        "numberOfBytes": "20"
      },
      "t_mapping(t_address,t_uint256)": {
        "encoding": "mapping",
        "key": "t_address",
        "label": "mapping(address => uint256)",
        "numberOfBytes": "32",
        "value": "t_uint256"
      },
      "t_uint256": {
        "encoding": "inplace",
        "label": "uint256",
        "numberOfBytes": "32"
      }
    }
  }
}